{
  "_format": "hh-sol-artifact-1",
  "contractName": "HotelRoomBookingSystem",
  "sourceName": "contracts/HotelRoomBookingSystem.sol",
  "abi": [
    {
      "anonymous": false,
      "inputs": [
        {
          "indexed": false,
          "internalType": "uint256",
          "name": "roomId",
          "type": "uint256"
        },
        {
          "indexed": false,
          "internalType": "string",
          "name": "roomType",
          "type": "string"
        }
      ],
      "name": "RoomAdded",
      "type": "event"
    },
    {
      "anonymous": false,
      "inputs": [
        {
          "indexed": false,
          "internalType": "address",
          "name": "user",
          "type": "address"
        },
        {
          "indexed": false,
          "internalType": "uint256",
          "name": "roomId",
          "type": "uint256"
        }
      ],
      "name": "RoomBooked",
      "type": "event"
    },
    {
      "anonymous": false,
      "inputs": [
        {
          "indexed": false,
          "internalType": "address",
          "name": "user",
          "type": "address"
        },
        {
          "indexed": false,
          "internalType": "uint256",
          "name": "roomId",
          "type": "uint256"
        }
      ],
      "name": "RoomVacated",
      "type": "event"
    },
    {
      "inputs": [
        {
          "internalType": "string",
          "name": "roomType",
          "type": "string"
        }
      ],
      "name": "addRoom",
      "outputs": [],
      "stateMutability": "nonpayable",
      "type": "function"
    },
    {
      "inputs": [
        {
          "internalType": "uint256",
          "name": "roomId",
          "type": "uint256"
        }
      ],
      "name": "attemptBookRoom",
      "outputs": [],
      "stateMutability": "nonpayable",
      "type": "function"
    },
    {
      "inputs": [
        {
          "internalType": "uint256",
          "name": "roomId",
          "type": "uint256"
        }
      ],
      "name": "bookRoom",
      "outputs": [],
      "stateMutability": "nonpayable",
      "type": "function"
    },
    {
      "inputs": [
        {
          "internalType": "address",
          "name": "",
          "type": "address"
        },
        {
          "internalType": "uint256",
          "name": "",
          "type": "uint256"
        }
      ],
      "name": "bookedRooms",
      "outputs": [
        {
          "internalType": "bool",
          "name": "",
          "type": "bool"
        }
      ],
      "stateMutability": "view",
      "type": "function"
    },
    {
      "inputs": [
        {
          "internalType": "uint256",
          "name": "roomId",
          "type": "uint256"
        }
      ],
      "name": "checkRoomAvailability",
      "outputs": [
        {
          "internalType": "string",
          "name": "roomType",
          "type": "string"
        },
        {
          "internalType": "bool",
          "name": "isBooked",
          "type": "bool"
        }
      ],
      "stateMutability": "view",
      "type": "function"
    },
    {
      "inputs": [],
      "name": "roomCount",
      "outputs": [
        {
          "internalType": "uint256",
          "name": "",
          "type": "uint256"
        }
      ],
      "stateMutability": "view",
      "type": "function"
    },
    {
      "inputs": [
        {
          "internalType": "uint256",
          "name": "",
          "type": "uint256"
        }
      ],
      "name": "rooms",
      "outputs": [
        {
          "internalType": "uint256",
          "name": "roomId",
          "type": "uint256"
        },
        {
          "internalType": "string",
          "name": "roomType",
          "type": "string"
        },
        {
          "internalType": "bool",
          "name": "isBooked",
          "type": "bool"
        }
      ],
      "stateMutability": "view",
      "type": "function"
    },
    {
      "inputs": [
        {
          "internalType": "uint256",
          "name": "roomId",
          "type": "uint256"
        }
      ],
      "name": "vacateRoom",
      "outputs": [],
      "stateMutability": "nonpayable",
      "type": "function"
    }
  ],
  "bytecode": "0x608060405234801561001057600080fd5b5061149a806100206000396000f3fe608060405234801561001057600080fd5b50600436106100885760003560e01c8063ad11c23f1161005b578063ad11c23f14610113578063b414928414610143578063d41815c914610174578063df93a4e31461019057610088565b80631bae0ac81461008d57806346e91fc4146100bf5780635f49d3d8146100db578063739e56e3146100f7575b600080fd5b6100a760048036038101906100a29190610ae4565b6101ae565b6040516100b693929190610bcb565b60405180910390f35b6100d960048036038101906100d49190610ae4565b61026d565b005b6100f560048036038101906100f09190610ae4565b61047c565b005b610111600480360381019061010c9190610ae4565b61068b565b005b61012d60048036038101906101289190610c67565b610848565b60405161013a9190610ca7565b60405180910390f35b61015d60048036038101906101589190610ae4565b610877565b60405161016b929190610cc2565b60405180910390f35b61018e60048036038101906101899190610e27565b610983565b005b610198610a94565b6040516101a59190610e70565b60405180910390f35b60006020528060005260406000206000915090508060000154908060010180546101d790610eba565b80601f016020809104026020016040519081016040528092919081815260200182805461020390610eba565b80156102505780601f1061022557610100808354040283529160200191610250565b820191906000526020600020905b81548152906001019060200180831161023357829003601f168201915b5050505050908060020160009054906101000a900460ff16905083565b6000806000838152602001908152602001600020905060008160000154036102ca576040517f08c379a00000000000000000000000000000000000000000000000000000000081526004016102c190610f37565b60405180910390fd5b8060020160009054906101000a900460ff161561031c576040517f08c379a000000000000000000000000000000000000000000000000000000000815260040161031390610fa3565b60405180910390fd5b600160003373ffffffffffffffffffffffffffffffffffffffff1673ffffffffffffffffffffffffffffffffffffffff168152602001908152602001600020600083815260200190815260200160002060009054906101000a900460ff16156103ba576040517f08c379a00000000000000000000000000000000000000000000000000000000081526004016103b19061100f565b60405180910390fd5b60018160020160006101000a81548160ff02191690831515021790555060018060003373ffffffffffffffffffffffffffffffffffffffff1673ffffffffffffffffffffffffffffffffffffffff168152602001908152602001600020600084815260200190815260200160002060006101000a81548160ff0219169083151502179055507f6cc5e9ebe35bedf81482783a414b38cf4053d6815c6fd9519b2ec22380488d27338360405161047092919061103e565b60405180910390a15050565b6000806000838152602001908152602001600020905060008160000154036104d9576040517f08c379a00000000000000000000000000000000000000000000000000000000081526004016104d090610f37565b60405180910390fd5b8060020160009054906101000a900460ff161561052b576040517f08c379a000000000000000000000000000000000000000000000000000000000815260040161052290610fa3565b60405180910390fd5b600160003373ffffffffffffffffffffffffffffffffffffffff1673ffffffffffffffffffffffffffffffffffffffff168152602001908152602001600020600083815260200190815260200160002060009054906101000a900460ff16156105c9576040517f08c379a00000000000000000000000000000000000000000000000000000000081526004016105c09061100f565b60405180910390fd5b60018160020160006101000a81548160ff02191690831515021790555060018060003373ffffffffffffffffffffffffffffffffffffffff1673ffffffffffffffffffffffffffffffffffffffff168152602001908152602001600020600084815260200190815260200160002060006101000a81548160ff0219169083151502179055507f6cc5e9ebe35bedf81482783a414b38cf4053d6815c6fd9519b2ec22380488d27338360405161067f92919061103e565b60405180910390a15050565b6000806000838152602001908152602001600020905060008160000154036106e8576040517f08c379a00000000000000000000000000000000000000000000000000000000081526004016106df90610f37565b60405180910390fd5b600160003373ffffffffffffffffffffffffffffffffffffffff1673ffffffffffffffffffffffffffffffffffffffff168152602001908152602001600020600083815260200190815260200160002060009054906101000a900460ff16610785576040517f08c379a000000000000000000000000000000000000000000000000000000000815260040161077c906110b3565b60405180910390fd5b60008160020160006101000a81548160ff0219169083151502179055506000600160003373ffffffffffffffffffffffffffffffffffffffff1673ffffffffffffffffffffffffffffffffffffffff168152602001908152602001600020600084815260200190815260200160002060006101000a81548160ff0219169083151502179055507f3b68fa7e634c15e4c72fa1b190cceb63415a980ceb786f1354f4ca7f80498cb3338360405161083c92919061103e565b60405180910390a15050565b60016020528160005260406000206020528060005260406000206000915091509054906101000a900460ff1681565b6060600080600080858152602001908152602001600020905060008160000154036108d7576040517f08c379a00000000000000000000000000000000000000000000000000000000081526004016108ce90610f37565b60405180910390fd5b806001018160020160009054906101000a900460ff168180546108f990610eba565b80601f016020809104026020016040519081016040528092919081815260200182805461092590610eba565b80156109725780601f1061094757610100808354040283529160200191610972565b820191906000526020600020905b81548152906001019060200180831161095557829003601f168201915b505050505091509250925050915091565b60008151116109c7576040517f08c379a00000000000000000000000000000000000000000000000000000000081526004016109be9061111f565b60405180910390fd5b600260008154809291906109da9061116e565b919050555060405180606001604052806002548152602001828152602001600015158152506000806002548152602001908152602001600020600082015181600001556020820151816001019081610a329190611362565b5060408201518160020160006101000a81548160ff0219169083151502179055509050507f1faa4180c1828eb18f05235f11241ad455e5b3554bdc4594ec6a4d1a261f76d160025482604051610a89929190611434565b60405180910390a150565b60025481565b6000604051905090565b600080fd5b600080fd5b6000819050919050565b610ac181610aae565b8114610acc57600080fd5b50565b600081359050610ade81610ab8565b92915050565b600060208284031215610afa57610af9610aa4565b5b6000610b0884828501610acf565b91505092915050565b610b1a81610aae565b82525050565b600081519050919050565b600082825260208201905092915050565b60005b83811015610b5a578082015181840152602081019050610b3f565b60008484015250505050565b6000601f19601f8301169050919050565b6000610b8282610b20565b610b8c8185610b2b565b9350610b9c818560208601610b3c565b610ba581610b66565b840191505092915050565b60008115159050919050565b610bc581610bb0565b82525050565b6000606082019050610be06000830186610b11565b8181036020830152610bf28185610b77565b9050610c016040830184610bbc565b949350505050565b600073ffffffffffffffffffffffffffffffffffffffff82169050919050565b6000610c3482610c09565b9050919050565b610c4481610c29565b8114610c4f57600080fd5b50565b600081359050610c6181610c3b565b92915050565b60008060408385031215610c7e57610c7d610aa4565b5b6000610c8c85828601610c52565b9250506020610c9d85828601610acf565b9150509250929050565b6000602082019050610cbc6000830184610bbc565b92915050565b60006040820190508181036000830152610cdc8185610b77565b9050610ceb6020830184610bbc565b9392505050565b600080fd5b600080fd5b7f4e487b7100000000000000000000000000000000000000000000000000000000600052604160045260246000fd5b610d3482610b66565b810181811067ffffffffffffffff82111715610d5357610d52610cfc565b5b80604052505050565b6000610d66610a9a565b9050610d728282610d2b565b919050565b600067ffffffffffffffff821115610d9257610d91610cfc565b5b610d9b82610b66565b9050602081019050919050565b82818337600083830152505050565b6000610dca610dc584610d77565b610d5c565b905082815260208101848484011115610de657610de5610cf7565b5b610df1848285610da8565b509392505050565b600082601f830112610e0e57610e0d610cf2565b5b8135610e1e848260208601610db7565b91505092915050565b600060208284031215610e3d57610e3c610aa4565b5b600082013567ffffffffffffffff811115610e5b57610e5a610aa9565b5b610e6784828501610df9565b91505092915050565b6000602082019050610e856000830184610b11565b92915050565b7f4e487b7100000000000000000000000000000000000000000000000000000000600052602260045260246000fd5b60006002820490506001821680610ed257607f821691505b602082108103610ee557610ee4610e8b565b5b50919050565b7f526f6f6d20646f6573206e6f7420657869737400000000000000000000000000600082015250565b6000610f21601383610b2b565b9150610f2c82610eeb565b602082019050919050565b60006020820190508181036000830152610f5081610f14565b9050919050565b7f526f6f6d20697320616c726561647920626f6f6b656400000000000000000000600082015250565b6000610f8d601683610b2b565b9150610f9882610f57565b602082019050919050565b60006020820190508181036000830152610fbc81610f80565b9050919050565b7f526f6f6d20616c726561647920626f6f6b656420627920796f75000000000000600082015250565b6000610ff9601a83610b2b565b915061100482610fc3565b602082019050919050565b6000602082019050818103600083015261102881610fec565b9050919050565b61103881610c29565b82525050565b6000604082019050611053600083018561102f565b6110606020830184610b11565b9392505050565b7f526f6f6d20776173206e6f7420626f6f6b656420627920796f75000000000000600082015250565b600061109d601a83610b2b565b91506110a882611067565b602082019050919050565b600060208201905081810360008301526110cc81611090565b9050919050565b7f526f6f6d20747970652063616e6e6f7420626520656d70747900000000000000600082015250565b6000611109601983610b2b565b9150611114826110d3565b602082019050919050565b60006020820190508181036000830152611138816110fc565b9050919050565b7f4e487b7100000000000000000000000000000000000000000000000000000000600052601160045260246000fd5b600061117982610aae565b91507fffffffffffffffffffffffffffffffffffffffffffffffffffffffffffffffff82036111ab576111aa61113f565b5b600182019050919050565b60008190508160005260206000209050919050565b60006020601f8301049050919050565b600082821b905092915050565b6000600883026112187fffffffffffffffffffffffffffffffffffffffffffffffffffffffffffffffff826111db565b61122286836111db565b95508019841693508086168417925050509392505050565b6000819050919050565b600061125f61125a61125584610aae565b61123a565b610aae565b9050919050565b6000819050919050565b61127983611244565b61128d61128582611266565b8484546111e8565b825550505050565b600090565b6112a2611295565b6112ad818484611270565b505050565b5b818110156112d1576112c660008261129a565b6001810190506112b3565b5050565b601f821115611316576112e7816111b6565b6112f0846111cb565b810160208510156112ff578190505b61131361130b856111cb565b8301826112b2565b50505b505050565b600082821c905092915050565b60006113396000198460080261131b565b1980831691505092915050565b60006113528383611328565b9150826002028217905092915050565b61136b82610b20565b67ffffffffffffffff81111561138457611383610cfc565b5b61138e8254610eba565b6113998282856112d5565b600060209050601f8311600181146113cc57600084156113ba578287015190505b6113c48582611346565b86555061142c565b601f1984166113da866111b6565b60005b82811015611402578489015182556001820191506020850194506020810190506113dd565b8683101561141f578489015161141b601f891682611328565b8355505b6001600288020188555050505b505050505050565b60006040820190506114496000830185610b11565b818103602083015261145b8184610b77565b9050939250505056fea2646970667358221220073ec6a7c23096345768071da38d900d78b677ea21b68ca9b8661f7c76e2c69d64736f6c63430008130033",
  "linkReferences": {},
  "deployedLinkReferences": {}
}